:020000040800F2
:10000000584D00209D0100088B260008D9220008C9
:1000100087260008511C0008253300080000000056
:1000200000000000000000000000000005010008C2
:10003000E91D00080000000049010008212E000809
:10004000B7010008B7010008B7010008B7010008B0
:10005000B7010008B7010008B7010008B7010008A0
:10006000B7010008B7010008B7010008B701000890
:10007000B7010008B7010008B7010008B701000880
:10008000B7010008B7010008B7010008B701000870
:10009000B7010008B7010008B7010008B701000860
:1000A000B7010008B7010008B7010008B701000850
:1000B000B7010008B7010008592F0008B701000870
:1000C000B7010008B7010008B7010008B701000830
:1000D000B7010008B5300008B7010008B7010008F3
:1000E000B7010008B7010008B7010008DFF810D019
:1000F00000F0E6F90048004709370008AFF3008038
:10010000584D0020224B19680868B0E8F00F80F3C2
:100110000988BFF36F8F4FF0000080F311884EF015
:100120000D0E70470000000006480068006880F36C
:10013000088862B661B6BFF34F8FBFF36F8F00DFE1
:1001400000BF00BF08ED00E0EFF30980BFF36F8F41
:100150000F4B1A6820E9F00F106008B54FF0BF0090
:1001600080F31188BFF34F8FBFF36F8F04F032FA23
:100170004FF0000080F31188BDE808401968086856
:10018000B0E8F00F80F30988BFF36F8F704700BFAE
:1001900098000020EFF30580704700000648804774
:1001A00006480047FEE7FEE7FEE7FEE7FEE7FEE75C
:1001B000FEE7FEE7FEE7FEE7F92E0008ED00000887
:1001C00040EA01039B0703D009E008C9121F08C0D9
:1001D000042AFAD203E011F8013B00F8013B521E59
:1001E000F9D27047D2B201E000F8012B491EFBD2D0
:1001F00070470022F6E710B513460A460446194632
:10020000FFF7F0FF204610BDF0B480EA0102D40FE2
:100210004200B2EB410F02D20246084611464A00A4
:1002200042D0C30DDDB2C1F3C752AD1A202D35DA6D
:10023000C1F3160141F4000204B15242C5F1200697
:1002400002FA06F12A411044B3EBD05F23D0C4B1C7
:10025000012DA0EBC35009DCF0BC4FF0004202EAD4
:10026000C352DBB200F5000000F0EFB8400000F12F
:10027000807000EBC350A0F1807040EAD17049005B
:1002800009E0490841EAC071A0EBC35000F5000045
:10029000400800EBC350F0BC00F0CEB86142012230
:1002A00002EB4101001BF6E7F0BC704781F0004112
:1002B000AAE780F00040A7E780EA010210B502F04B
:1002C0000043400022D04A001FD0010E01EB126112
:1002D000C0F35600C2F3560240F4000042F400029C
:1002E000A0FB022000047F39140400D0401C50EA17
:1002F000124001D44000491EC2B20C0604EBD010DB
:10030000401C4008802A02D003E0002010BD20F0ED
:100310000100002900DA0020184310BD30B480EA43
:10032000010202F0004530F0004221F0004013D0FD
:1003300090B1C30DD40DC2F31601C0F31600E41A38
:1003400041F4000140F400027D34914201D3641C69
:1003500000E04900002C02DA30BC002070474FF466
:1003600000000023914201D3891A034340084FEA59
:100370004101F7D151B1914202D14FF0004105E066
:1003800002D24FF0010101E06FF0010103EBC45014
:10039000284430BC00F050B8C10F80EAE070084437
:1003A000CA079623002100F050B896230022114678
:1003B00000F04BB800F0004220F00040C10DC0F347
:1003C000160040F400007F2901DA002070479629CA
:1003D00003DCC1F19601C84001E096398840002A4B
:1003E000F4D04042704720F00040C10DC0F3160029
:1003F00040F400007F2901DA00207047962903DCD1
:10040000C1F19601C8407047963988407047000096
:10041000002801DBC0F10040002901DBC1F10041EF
:1004200081427047002801DBC0F10040002901DB58
:10043000C1F10041884270470029A8BF7047401CA5
:10044000490008BF20F00100704710B4B0FA80FCEA
:1004500000FA0CF050EA010404BF10BC704749B127
:10046000CCF1200421FA04F411FA0CF118BF012197
:1004700021430843A3EB0C01CB1D4FEA00614FEA77
:10048000102042BF002010BC704700EBC350104446
:100490000029A4BF10BC7047401C490008BF20F0D1
:1004A000010010BC7047420005D0C0F3C752524251
:1004B000914201DC0020704700EBC1507047000002
:1004C000064C074D06E0E06840F0010394E80700A1
:1004D00098471034AC42F6D3FFF70CFE6851000881
:1004E000885100082DE9F0438DB05248006810B1E2
:1004F0000DB0BDE8F083012004F070F94D490860AB
:10050000012004F06BF94C49086004F093F84B4962
:10051000086074214A48FFF76CFE34216846FFF7F3
:1005200068FE684601F08AF90027002600240AE0E8
:100530003DF91400002804DD781CC7B23DF9140011
:100540000644601CC4B20F2CF2DBB0B2394601F095
:1005500035F805460DB906B932252846FFF725FFBF
:1005600081463849FFF7DAFE80463749FFF7A4FE97
:10057000334988643448C864002081F86000C86545
:10058000084680F86850642081F86900012081F8ED
:100590006E0081F86F00002081F8700081F8710012
:1005A00081F8720003210346CA01CDE9001027A19A
:1005B000284804F02DFB012801D000BFFEE70020F1
:1005C000042103468A01CDE9001023A1244804F048
:1005D0001FFB012801D000BFFEE7002002210346D7
:1005E000CA01CDE900101FA11F4804F011FB01282A
:1005F00001D000BFFEE70020012103460A02CDE939
:1006000000101AA11B4804F003FB012801D000BF11
:10061000FEE70020032103464FF48072CDE900106D
:1006200015A1174804F0F4FA012801D000BFFEE735
:1006300000BF5DE754000020580000205C0000204F
:10064000D00300200000C842000096444D6561734D
:1006500000000000F90E00084661756C740000008F
:100660003D0C0008534F43001911000842616C61B2
:100670006E636500450900084374726C0000000059
:10068000810A0008014600200A780AB140F0010002
:100690004A780AB140F002008A780AB140F00400BA
:1006A000CA780AB140F008000A790AB140F0100097
:1006B0004A790AB140F020008A790AB140F040003E
:1006C000CA790AB140F080000A7A0AB140F4807019
:1006D0004A7A0AB140F400708A7A0AB140F4806024
:1006E000CA7A0AB140F400607047000010B50446B1
:1006F0000CB9002010BD142000F068F8012801D0CA
:100700000020F7E73C212046FFF773FD2548006BEA
:1007100020602448008CA0802248408CE080214842
:10072000007884F826001E221E49891C04F1080066
:10073000FFF746FD1B48416A44F8281F008DA08042
:10074000184890F87000A071164890F87100E07198
:10075000144890F868002072124890F8690060729E
:100760001048B0F8640060810E48B0F86A00A081BB
:100770000C48B0F86C00E0810A48B0F840002082D4
:10078000283C084890F8420018B1208F40F40040FF
:100790002087044890F8720084F83A0000F0E4FEE4
:1007A0000120A7E7D003002010B5044606480068E2
:1007B00008B9002010BD00232246194602480068EF
:1007C00004F03AF8F6E700005800002010B504469F
:1007D0000648006808B9002010BD002322461946CB
:1007E0000248006804F028F8F6E7000054000020F2
:1007F00010B504464FF0FF30FFF7E8FF01280CD199
:1008000004B100E00020054981F86E0000F0ACFE64
:1008100020210348006803F01AFF10BDD003002018
:100820005C00002010B504464FF0FF30FFF7CEFF0C
:1008300001280CD104B100E00020054981F86F00C7
:1008400000F092FE20210348006803F000FF10BD75
:10085000D00300205C00002010B586B004460CB91F
:1008600006B010BD1422214601A8FFF7A9FCBDF86F
:10087000040041F2CC0240F6D86102F006FEADF869
:100880000400BDF80420BDF806004FF4616102F0D9
:10089000FCFDADF80600BDF8080040F6E4424FF458
:1008A000FA6102F0F2FDADF80800BDF80810BDF8DD
:1008B0000A004FF4616202F0E8FDADF80A00039807
:1008C000642801D2642000E00398039044F620617C
:1008D0000398884201D908460390BDF910004FF4EF
:1008E0002F72642102F0C6FDADF81000BDF91200B0
:1008F000C822124902F0BEFDADF81200BDF9140085
:100900004FF44872642102F0B5FDADF81400BDF952
:100910001600C822094902F0ADFDADF816003220DC
:10092000FFF754FF012806D1142201A90448FFF75C
:1009300047FC00F019FE00BF92E7000070FEFFFFC9
:10094000600000208EB0002700BF4FF0FF30002372
:100950000122042100904848006803F0C1FE1420E1
:10096000FFF734FF012800D0EFE72C22434903A80A
:10097000FFF726FC4148B0F8409090F842A090F86C
:100980007000029000F0F0FDB9F1000F07D1BAF14C
:10099000000F04D1029810B19DF80C0058B94FB166
:1009A0001420FFF701FF012804D100F06FFE00F0D2
:1009B000CFFD0027C9E747F6FF74E64300210DE0AD
:1009C0000DF10E0232F91100002805DDA04200DA17
:1009D0000446B04200DD0646481CC1B20F29EFD3E1
:1009E00047F6FF70844202D016F5004F00D1ACE705
:1009F000301B0FFA80F80025B8F11E0F14DB002021
:100A00000FE00DF10E0232F91010002907DD04F19C
:100A10001E02914203DB012282402A4395B2411C0F
:100A2000C8B20F28EDD305E0B8F10F0F01DC0025A7
:100A300000E03D46BD421ED01420FFF7B5FE012860
:100A400019D100F023FE4FF0000B0EE0012000FA58
:100A50000BF0284028B10BF10101C8B2012100F0D0
:100A600023FE0BF1010000F0FF0BBBF10F0FEDD3E4
:100A700000F06EFD2F4668E75C000020D0030020E8
:100A800098B000BFC8200023012278210090674859
:100A9000006803F025FE1420FFF798FE012800D01F
:100AA000F0E72C2262490DA8FFF78AFB604A343236
:100AB00007CA0AAB07C35E48B0F8404090F84250FE
:100AC00090F86E9090F86FA090F8686090F870B011
:100AD00090F87100099000F047FD5649002011E0A0
:100AE0000DF1360232F91020002A09DD0DF136022F
:100AF00032F910208A4203DD0DF1360232F910106E
:100B0000421CD0B20F28EBD39DF828201AB1012245
:100B1000494B1A7009E0484A127832B141F2040296
:100B2000914202DA0022444B1A7040F6F5400890D8
:100B300040F63A700790B9F1000F0AD04DB93E481F
:100B4000007830B90898204018B9642E01D20120ED
:100B500000E000200690BAF1000F06D02DB90798EA
:100B6000204010B90EB1012000E0002005905F4642
:100B7000DDF824801420FFF717FE012829D100207A
:100B80000390029002A903A800F00AFE9DF80C1041
:100B90000698884208D00020019001A9069800F02C
:100BA000B7FD9DF8047001E09DF80C709DF80810E9
:100BB0000598884208D00020019001A9059800F00E
:100BC000CBFD9DF8048001E09DF8088000F0C0FC9A
:100BD00000BF0020049005B914B10320049014E074
:100BE00037B1BDF95600642802DD012004900CE005
:100BF000B8F1000F07D0BDF9560010F1640F02DA0A
:100C00000220049001E0002004901420FFF7DEFD94
:100C100001280AD1064880F8707080F87180044974
:100C2000049881F8720000F09FFC2BE75C00002024
:100C3000D00300200080FFFF7900002094B000BFA7
:100C400064200023012211460090A748006803F0A9
:100C500047FD83460BF0010000B9F1E70020119039
:100C6000129013902C2106A8FFF7C3FA1420FFF767
:100C7000ADFD01280CD12C229C4906A8FFF7A0FA53
:100C800014229B4901A8FFF79BFA00F06DFC00E0DD
:100C9000D6E700241420FFF787FD012806D100F0D5
:100CA00008FF044600F0ECFC00F052FC04F01000D9
:100CB00010B101208DF8490004F0080010B10120A6
:100CC0008DF8480004F0020010B101208DF84400B6
:100CD00004F0040010B101208DF8450004F040003C
:100CE00010B101208DF84E0004F0200010B1012059
:100CF0008DF84F0047F6FF786FEA080900211FE0E2
:100D00000DF11A0232F91100002817DD404500DA12
:100D10008046484500DD8146BDF8042012B282427B
:100D200002DC01228DF84420002807DDBDF80820F0
:100D300012B2824202DB01228DF84520481CC1B26A
:100D40000F29DDD39DF8180010B19DF8180000E0C0
:100D500001208246BDF83810BDF8040000FB0AF0FF
:100D6000814202D301208DF84600BDF838000028EA
:100D70000ADDBDF83810BDF8080000FB0AF081421A
:100D800002D801208DF84700BDF93A00002811DA99
:100D9000BDF93A10484242F21071884203DB01214A
:100DA0008DF8491005E00399814202DC01218DF89C
:100DB000481000BF4F4D6E0C00210FE00FAA32F912
:100DC000110010F5004F00D106E0A84200DD0546F5
:100DD000B04200DA064600BF481CC1B20329EDD379
:100DE00015F5004F0DD0BDF91000A84202DC01201E
:100DF0008DF84A00BDF91400A84202DC01208DF8EC
:100E00004C0047F6FF7086420DD0BDF91200B0428B
:100E100002DB01208DF84B00BDF91600B04202DB69
:100E200001208DF84D0011A8FFF72CFC0746142077
:100E3000FFF7CCFC012851D12C4811A90EC9343040
:100E40000EC04038A0F8407077B39DF8491029B91A
:100E50009DF8481011B99DF84E1009B1012100E02C
:100E6000002108460021214A82F8431030B10221B6
:100E700082F84410012182F8421014E01B4991F8D5
:100E80004410022906D2194991F84410491C174A06
:100E900082F84410154991F84410022903D3012126
:100EA000124A82F8421017E00020104981F84400ED
:100EB000084690F84300032805D2084690F84300FE
:100EC000401C81F84300094890F84300032803D3ED
:100ED0000020064981F8420000F046FB402102480C
:100EE000006803F0B4FBABE65C000020D0030020F8
:100EF000600000200080FFFF9AB0322003F032FA39
:100F00001E217C48FFF775F903F0C2FE199000BF5F
:100F1000642119A803F040FA34210CA8FFF769F9FD
:100F20001420FFF741FC012805D10CA800F086FC35
:100F300000F00EFB00E0EBE72C2101A8FFF759F9C8
:100F400000208DF8040000BF39E00CAA32F910101F
:100F5000694A1278DAB1674A32F91020002A16DDA0
:100F6000644B33F81030CB1A1AB2002A01DA53421C
:100F70001AB2C82A0ADD40F68C23994206DD41F2F6
:100F80006803994202DA5B4B33F9101000BF002965
:100F90000DDD0DF1060222F81010564A22F810104D
:100FA0009DF80420521CD2B28DF8042005E04FF0C9
:100FB000FF330DF1060222F81030411CC8B20F2891
:100FC000C3D3BDF84E004C49097859B34B49098841
:100FD000002927DD002825DD484E3688811B0029A1
:100FE00000DA49429DF8046016B19DF8046000E003
:100FF0000F26334641F2680603FB06F440F68C26C2
:1010000003FB06F2A04201D2904201D8012600E083
:101010000026354640F2DC56B14202DD0DB9374EAE
:10102000308800BFADF82400002801DD3349088076
:10103000BDF950003049097889B1314AB2F9002030
:10104000811A002900DA494240F6B832914205DDA2
:1010500010F57A6F02DD2A4AB2F9000000BFADF840
:1010600026002749088001202349087000241FE03A
:1010700015A850F8245023492846FFF7D3F910D279
:1010800021492846FFF7C4F90BD220492846FFF72B
:1010900013F90646FFF78EF901B20AA820F81410DA
:1010A00004E04FF400410AA820F81410601CC4B2F8
:1010B000032CDDD31420FFF789FB012813D12A224A
:1010C00001A91348FFF77CF803F0E2FD1049C8625C
:1010D0000846C06A4FF47A714843B0FBF1F00C49FE
:1010E000086300F041FA0F210A48006803F0AFFAE4
:1010F0000EE7000044040020780000207400002067
:1011000076000020000048C20000F04200002041AC
:10111000D00300205C000020A0B003F0B9FD1F90B8
:10112000002600BF4FF0FF30002301220221009073
:10113000F548006803F0D4FA1420FFF747FB0128B4
:1011400000D0EFE72C22F14914A8FFF739F8EF4857
:10115000C06A1390ED48876CC46CD0F85080406D25
:101160001290EA48D0F85890C06D1190E74890F876
:1011700060A0406E109000F0F7F91F991398401A84
:101180000F9013981F904FF47A710F984843B0FB5B
:10119000F1F00E900F98FFF708F9DD490690FFF780
:1011A000BDF80D9000210D98FFF732F903D8D9480A
:1011B0000D9064200E900E9808B964200E90BDF931
:1011C0007200FFF7E9F8054625F00040D249069085
:1011D000FFF71EF900D2002528460D99FFF76CF89D
:1011E000834600215846FFF71DF904D2CB495846E3
:1011F000FFF762F8834659463846FFF705F8074679
:1012000025F00040C6490690FFF702F909D2C5480B
:10121000864207D20E980644C248864202D9064644
:1012200000E00026BF48864243D300200690059088
:1012300000BF13E00DF1520131F9101000290BDD50
:101240000DF1520131F810108AB20699114406913D
:101250000599491CC9B20591411CC8B20F28E9D3B0
:10126000059820B30698B0F5803F20D2069988B241
:10127000059900F0A3F904900498FFF796F8AA499D
:101280000190FFF74BF821460290FFF715F8039005
:10129000A6480399FFF710F839460290A448FFF7D3
:1012A0000BF801900299FEF7AFFF074600BF00263A
:1012B00000BFA0492046FFF7ABF800D29D4C224664
:1012C0000021384602F026F907462BF00040069030
:1012D0001299FEF799FF129097492846FFF798F860
:1012E0000AD285F0004005900D99FEF7E5FF4146D2
:1012F0000690FEF789FF804600212046FFF792F80E
:1013000008D221463846FFF709F887490690FEF7CC
:10131000D3FF00E000200C90834A00210C9802F0DB
:10132000F9F80C9085490C98FFF772F808D8BAF1D3
:10133000000F05D14FF0010A4FF000090C981190F1
:10134000BAF1010F54D100212846FFF76BF80DD2F6
:1013500000215846FFF766F801D2584600E0002009
:10136000014606904846FEF74FFF814674490C98A7
:10137000FFF758F83CD811990C98FEF797FF0690A4
:101380004FF07E510698FFF743F801D26D48069062
:1013900021464FF07C50FEF78FFF03900699FEF731
:1013A0008BFF61490490FEF7B9FF49460590FFF7AE
:1013B0002FF817D25C494846FEF77EFF0490069945
:1013C000FEF7ACFF059059480599FEF775FF2146D9
:1013D00004905748FEF770FF03900499FEF714FF3E
:1013E000044600BF4FF0000AD1460020119000BF14
:1013F00050492046FFF70CF800D24E4C5249204687
:10140000FFF710F800D2504C22460021384602F077
:1014100081F8074600212046FFF704F808D221464C
:101420003846FEF77BFF40490690FEF745FF00E097
:1014300000200C903C4A00210C9802F06BF80C90B4
:1014400000212046FEF7EEFF0CD221464046FEF773
:10145000E9FF07D81098401C109021464046FEF73F
:1014600025FF804639492046FEF758FF2E49069051
:10147000FEF722FF0B902C4A27490B9802F04AF8FE
:101480000B9025493846FEF749FF069002F008F810
:101490000A9021492046FEF741FF069002F000F82D
:1014A00009900C9802F01AF808900B9802F016F8C0
:1014B00007901420FFF78AF901281FD11348876489
:1014C000C464C0F850801149129848650846C0F8B5
:1014D00058901198C865084680F860A01098486632
:1014E000089881F86800079881F869000A98A1F8BF
:1014F0006C000998A1F86A0000F036F81021024843
:10150000006803F0A4F80DE65C000020D003002082
:1015100000BA5B4A5304E9370000204152B87E3FCD
:1015200000004842E09304000000C842CDCCCC3D0E
:101530006666663F0000FA43000048C20000A04112
:101540000000BE42000096420000E14400009644C4
:1015500010B500231A4619460248006803F05AFAEB
:1015600010BD00005800002010B500231A4619468F
:101570000248006803F04EFA10BD0000540000203D
:1015800030B502460B460020002113E0545C604059
:1015900000240BE000F0800525B1072585EA400511
:1015A000E8B201E04506280E651CECB2082CF1DB20
:1015B0004C1CE1B29942E9DB30BD00002DE9F0435B
:1015C00004460B4613B90020BDE8F08394FBF3F00A
:1015D00082B2152500213AE01F4830F921009042DF
:1015E00004DC1D4800EB81008078EDE71A4E481CB2
:1015F00036F92000904228DA304630F821808146C2
:10160000481C39F82000A8EB000006B2484600EB61
:10161000810090F80280481C09EB80008078A8EBDC
:101620000000C7B2484630F82100801A0FFA80FC4B
:101630000CFB07F090FBF6F0C84608EB810898F821
:101640000280A8EB0000C0B2BEE7481CC1B214295A
:10165000C2DB0020B8E70000D45000080020074A91
:101660001288C2F30E0105E001F001020AB1421C2A
:10167000D0B249100029F7D1704700003C0000208B
:1016800010B57F21002000F08FFA10BD10B50021A9
:10169000012000F089FA0021022000F085FA0021E3
:1016A000032000F081FA10BD2DE9F0410446884680
:1016B000012C01DB0F2C01DDBDE8F081204601F09B
:1016C0004BFF00B9F8E7052C03DC0127601EC5B20B
:1016D00009E00A2C03DC0227A01FC5B203E00327A0
:1016E000A4F10B00C5B2384600F0B4F90646B8F1D3
:1016F000000F04D00120A8403043C6B202E0012010
:10170000A84086433146384600F04EFA00BFD3E782
:101710002DE9F04105460C46052000F09BF90646F0
:1017200006F0020848F040072DB147F001072CB140
:101730000120207002E00CB1002020703946052005
:1017400000F032FA052000F085F9064614B106F0E3
:1017500001002070BDE8F0812DE9F04105460C46FE
:10176000052000F077F9064606F0010848F040072A
:101770002DB147F002072CB10120207002E00CB11E
:10178000002020703946052000F00EFA052000F0F8
:1017900061F9064614B1C6F340002070BDE8F0813F
:1017A00070B504460D46052000F054F9064614B104
:1017B00006F00100207015B1C6F34000287070BD1E
:1017C00010B500F025F801F0AFFD322000F046FB27
:1017D0007F21002000F0E8F90021012000F0E4F969
:1017E0000021022000F0E0F90021032000F0DCF9E4
:1017F00000F018FA0A2000F031FB00F06FFC00F056
:10180000B5FF00F0A9FF7F21002000F0CDF910BD49
:1018100008B50121042001F085F84FF48070ADF87F
:10182000000010208DF8030003208DF802006946A7
:10183000014800F06DFB08BD000801402DE9F047AC
:1018400004460CB9BDE8F0870025A846002710E043
:10185000791CC8B200F036F8814624F81790B9F127
:10186000000F04DD4D4408F1010000F0FF08781C72
:10187000C7B20F2FECDBB5F5803F02DB4FF6FF70F0
:1018800000E0A8B2824600F0B3F8064616B9002D73
:1018900000DD5646E68300F05FF82084414650465E
:1018A000FFF78CFE84F83000012000F007F9606239
:1018B000022000F003F9A062032000F0FFF8E062CC
:1018C00000BFBFE72DE9F0470646012E01DB0F2ED2
:1018D00003DD4FF0FF30BDE8F087304601F03CFEFD
:1018E00010B94FF0FF30F6E7701E0C2101EB4000FD
:1018F000C7B2781C00F0FF09384600F0ABF882460A
:10190000484600F0A7F8804648EA0A244FF6FF70E0
:10191000844200D014B94FF0FF30DCE70C48006877
:1019200060434FF47A7190FBF1F00A490968451859
:10193000C82D02DA4FF0FF30CDE7002D03DB41F276
:101940008830854202DD4FF0FF30C4E728B2C2E79D
:1019500034000020300000202DE9F041332000F059
:1019600079F80546322000F075F845EA00244FF674
:10197000FF70844202D10020BDE8F08125B22846E4
:10198000FEF70AFD80461749FEF796FC07464FF022
:101990008141FEF7C3FC064613493046FEF742FD7F
:1019A00002D247F6FF70E7E74FF047413046FEF7B7
:1019B0002FFD01D20D48DFE700213046FEF732FD52
:1019C00005D84FF07C513046FEF71EFC04E04FF086
:1019D0007C513046FEF76AFC0746FEF7EBFC00B28E
:1019E000CAE700003D0A074100FEFF460080FFFFF6
:1019F00070B52B2000F02EF804462A2000F02AF8BB
:101A000044EA00254FF6FF70854200D00DB9002052
:101A100070BDFFF723FE064606B901260B48006895
:101A2000684380004FF47A7190FBF1F0084909682F
:101A300001FB0604002C01DA002404E0B4F5803F29
:101A400001DB4FF6FF74A0B2E2E700003400002093
:101A50003000002070B5044600F00AFD102000F0B0
:101A60007BFD00F049FD18B100F022FD002070BDA3
:101A7000204600F071FD00F03FFD18B100F018FDA8
:101A80000020F4E700F0F4FC112000F065FD00F008
:101A900033FD18B100F00CFD0020E8E7012000F054
:101AA0008FFC0546002000F08BFC00F001FD28466D
:101AB000DDE710B50020FFF7CDFF10BD2DE9F04F99
:101AC00089B00746012F04D0022F05D0032F09D17A
:101AD00005E02C242D2509E02E242F2506E03024B6
:101AE000312503E0294809B0BDE8F08F00BF284642
:101AF000FFF7B0FF83462046FFF7ACFF4BEA002616
:101B00004FF6FF70864200D00EB92048EBE7304612
:101B1000FEF74BFC83461E49FEF7CEFB804641464E
:101B20001C48FEF7C3FB834641461B48FEF7C4FB37
:101B300059460590FEF7F2FB8146DFF860A0184891
:101B400008901848079014494846FEF7E7FB0190B3
:101B500001F012FD02900899FEF7E0FB5146049057
:101B60004FF07E50FEF7DAFB03900499FEF74CFB32
:101B7000834659464FF07E50FEF7D0FB05900799FB
:101B8000FEF794FB06900698ADE70000339388C3F8
:101B90008195C33E00404E4500401C46331395439B
:101BA0000040534533938843F8B505460C46102052
:101BB0008DF800008DF801508DF802400321684631
:101BC000FFF7DEFC064600F053FC9DF8000000F035
:101BD000C3FC00F091FC10B100F06AFCF8BD28468F
:101BE00000F0BAFC00F088FC10B100F061FCF5E7F1
:101BF000204600F0B1FC00F07FFC10B100F058FC72
:101C0000ECE7304600F0A8FC00F076FC10B100F0E4
:101C10004FFCE3E700F04CFC022000F01FF900BF8E
:101C2000DCE7000010B500240AE0074A115D074A0E
:101C3000105DFFF7B9FF022000F010F9601CC4B27C
:101C40000C2CF2DB10BD0000C8500008BC5000088E
:101C500000BFFEE730B502460B464FF6FF7000218D
:101C600012E0545C604000240AE000F0010525B158
:101C70004AF2010585EA600000E04010651CECB204
:101C8000082CF2DB4C1CA1B29942EADB30BD2DE9F5
:101C9000F04180460E4617464FF6FF74002516E0C9
:101CA000701981B2404602F067FA444000200AE011
:101CB00004F0010121B14AF2010181EA640400E06B
:101CC0006410411CC8B20828F2DB681C85B2BD4212
:101CD000E6DB2046BDE8F08100BF00BF00F030F831
:101CE000012002F03FFBF9E710B500200949088008
:101CF00009490880094908600949087009490870BC
:101D00004FF4FA700849088001F018FC0749086090
:101D100010BD0000440000204600002048000020C4
:101D20004C0000204D0000204E00002050000020FC
:101D300002480068401C01490860704740000020CC
:101D400070B500F04FFD0C480078A0B101F0F6FB33
:101D500004460A480068201A09490988884209D3BC
:101D600008480578691C02461170284600F0D8FE24
:101D70000248046000BF70BD4C00002050000020ED
:101D80004E0000204D0000200B4A1288521CC2F366
:101D900008010A4A1288914205D1094A1268521C68
:101DA000074B1A607047074A034B1B88D054024AFE
:101DB000118000BFF6E7000044000020460000202C
:101DC000480000206C01002010B50446142C00D2FD
:101DD00014240348048001F0B1FB0249086010BDDF
:101DE0004E0000205000002070470000134800788B
:101DF00000B170471248006840F0807010490860D8
:101E00000020104948600846006840F00100086062
:101E10000846006800F0010070B10B4800680B49EB
:101E2000B0FBF1F00A4908600846006808B90120D3
:101E3000086001200149087000BFDAE72C0000208B
:101E4000FCED00E0001000E00000002040420F0028
:101E50002800002010B5FFF7C9FF10BD70B504467B
:101E600004B970BD02F004FF01280AD04FF47A7063
:101E700060434FF47A71B0FBF1F5284602F072FA34
:101E8000EFE703E04FF47A7000F006F8201EA4F1AB
:101E90000104F7D100BFE4E72DE9F04104460CB995
:101EA000BDE8F0811548007808B9FFF79FFF134897
:101EB000007860B1124A5068124A1268A2FB0413FB
:101EC00000BF0F4A5268121A8A42FAD314E00E4B2E
:101ED0001B680E4DB3FBF5F0A0FB04131A4600E09F
:101EE00000BF13460D46491E62F1000200277D40E7
:101EF0007B401D43F4D100BF00BFD1E72C00002080
:101F0000001000E0280000200000002040420F00E8
:101F10002DE9F04102460025002600200023002480
:101F2000002791F803C00CF00F0591F803C00CF0E6
:101F3000100CBCF1000F03D091F802C04CEA05056B
:101F400091F800C0BCF1000F31D0146800202BE0E4
:101F50004FF0010C0CFA00F3B1F800C00CEA0306D4
:101F60009E4220D183004FF00F0C0CFA03F7BC43C4
:101F700005FA03FC4CEA040491F803C0BCF1280FF5
:101F800006D14FF0010C0CFA00FCC2F814C00AE0B4
:101F900091F803C0BCF1480F05D14FF0010C0CFAC9
:101FA00000FCC2F810C0401C0828D1D31460B1F85E
:101FB00000C0BCF1FF0F34DD546800202EE000F1BA
:101FC000080C4FF0010808FA0CF3B1F800C00CEA55
:101FD00003069E4221D183004FF00F0C0CFA03F749
:101FE000BC4305FA03FC4CEA040491F803C0BCF1BD
:101FF000280F05D100F1080C08FA0CF8C2F814807B
:1020000091F803C0BCF1480F07D100F1080C4FF064
:10201000010808FA0CF8C2F81080401C0828CED33A
:102020005460BDE8F0810000F0B50A4600230024AA
:102030000021002500F00046B6F1004F02D11D4EF0
:10204000F16901E01B4E7168C0F3034583B200F4EF
:102050004016B6F5401F08D121F07061154E766824
:1020600026F07066134F7E6012E000F48016B6F51D
:10207000801F06D1032606FA05F4A14341F07061E2
:1020800006E0460D360103FA06F6B14341F07061F1
:1020900022B1460D360103FA06F6314300F0004640
:1020A000B6F1004F02D1034EF16101E0014E7160C3
:1020B000F0BD0000000001400246002093680B4084
:1020C0000BB1012000E000207047416170470161C1
:1020D00070470AB1016100E04161704770B550205E
:1020E000FFF7B8FC04465920FFF7B4FC054605F09D
:1020F000E001C4F3810242EAE100FEF74DF908492C
:1021000008605120FFF7A6FC40B206490860044869
:102110000068FEF74FF900F26D100349086070BDCA
:102120003800002030000020340000202DE9F0416C
:1021300086B007460D4614461E46112F49D008DCCE
:10214000012F0FD0022F12D0032F2FD0102F7DD1AF
:1021500034E0122F48D0132F51D0202F5AD0302FD7
:10216000F5D15BE00021284600F07AFCABE04CB1F1
:10217000022E07D32078617840EA01284046FFF715
:1021800023FE00BF0120524908705248057000210B
:10219000284600F065FC4F4890F8008008F10101E6
:1021A00002461170404600F0BBFC8CE0002048491C
:1021B00008700021284600F053FC84E00120FEF75F
:1021C00017FB0021284600F04BFC284600F0A8FC35
:1021D00079E00020FEF70CFB0021284600F040FCCF
:1021E000284600F09DFC6EE00120FEF71BFB00215D
:1021F000284600F035FC284600F092FC63E0002001
:10220000FEF710FB0021284600F02AFC284600F0CB
:1022100087FC58E0284600F083FC54E0142E04DAD2
:102220000221284600F01CFC4DE02078617840EA4D
:102230000120ADF80400A078E17840EA0120ADF873
:1022400006002079617940EA012000E036E0ADF82F
:102250000800A079E17940EA0120ADF80A00207A6F
:10226000617A40EA0120A17A40EA0140E17A40EA3D
:1022700001600390207B617B40EA012000B2ADF851
:102280001000A07BE17B40EA012000B2ADF8120013
:10229000207C617C40EA012000B2ADF81400A07CF3
:1022A000E17C40EA012000B2ADF8160001A8FEF77B
:1022B000D3FA0021284600F0D3FB04E0042128468D
:1022C00000F0CEFB00BF00BF06B0BDE8F08100000B
:1022D0004C0000204D00002000BFFEE710B500F0CC
:1022E000B5F84FF480710C48FFF7EFFE4FF4007122
:1022F0000948FFF7EAFE0220FFF7CEFD4FF4807198
:102300000548FFF7E4FE0220FFF7C6FD4FF4807199
:102310000148FFF7DAFE10BD000C014008B50121AD
:10232000082000F0FFFA4FF40070ADF80000142010
:102330008DF8030003208DF8020069460D48FFF771
:10234000E7FD4FF48070ADF8000014208DF8030015
:1023500069460848FFF7DCFD4FF400710548FFF7B8
:10236000B6FE4FF480710348FFF7B1FE0520FFF77A
:1023700093FD08BD000C014010B500F067F84FF464
:1023800080710E48FFF7A1FE0220FFF785FD4FF494
:1023900000710A48FFF79BFE0220FFF77DFD4FF416
:1023A00080710648FFF793FE0220FFF775FD4FF49A
:1023B00080710248FFF789FE10BD0000000C01404B
:1023C00070B50546002400F02FF800261BE04FF4FE
:1023D00080711448FFF779FE0220FFF75DFD4FF48E
:1023E00080711048FFF773FE6006040E4FF4007111
:1023F0000C48FFF761FE08B144F001040220FFF72A
:102400004BFD701CC6B2082EE1DB15B1FFF766FF6D
:1024100001E0FFF7B1FF4FF480710248FFF755FE6E
:10242000204670BD000C014008B54FF40070ADF8B7
:10243000000048208DF8030003208DF80200694653
:102440000148FFF765FD08BD000C014008B54FF4D9
:102450000070ADF8000014208DF8030003208DF803
:10246000020069460148FFF753FD08BD000C01401A
:1024700010B5FFF7EBFF4FF400710C48FFF727FE94
:102480004FF480710948FFF722FE0420FFF704FD96
:102490004FF400710548FFF718FE0420FFF7FCFC1D
:1024A0004FF480710148FFF710FE10BD000C014091
:1024B00010B5FFF7CBFF4FF480710E48FFF705FE14
:1024C0004FF400710B48FFF700FE0420FFF7E4FC17
:1024D0004FF480710748FFF7FAFD0420FFF7DCFC9A
:1024E0004FF400710348FFF7F2FD0420FFF7D4FC1E
:1024F00010BD0000000C014010B50024FFF794FF50
:102500004FF400711348FFF7E2FD0220FFF7C4FC0F
:102510004FF480710F48FFF7DAFD0220FFF7BCFC93
:1025200007E0601CC4B2FA2C03DDFFF7C1FF0120F5
:1025300010BD4FF400710748FFF7BEFD0128F0D031
:102540000220FFF7A9FC4FF480710248FFF7BDFDA0
:102550000020EDE7000C014070B50446FFF776FF60
:102560004FF480711648FFF7B0FD002524E004F019
:10257000800028B14FF400711148FFF7A8FD04E076
:102580004FF400710E48FFF7A0FD6006040E022014
:10259000FFF782FC4FF480710948FFF798FD022095
:1025A000FFF77AFC4FF480710548FFF78EFD02209B
:1025B000FFF772FC681CC5B2082DD8DB70BD0000A7
:1025C000000C01404CF6CC40014908607047000007
:1025D000003000404AF6AA20014908607047000018
:1025E0000030004001494860704700000030004062
:1025F00001498860704700000030004001490860D0
:10260000704700000030004008B50121042000F0B0
:1026100089F90121084600F085F901210848FFF7F2
:1026200003FD4FF40040ADF8000010208DF80300CA
:1026300003208DF8020069460248FFF769FC08BDD7
:10264000000230000008014010B54FF40041084876
:10265000FFF732FD28B14FF400410548FFF735FD83
:1026600004E04FF400410248FFF731FD10BD0000C7
:102670000008014000BF00BFFFF7E6FF4FF4FA700B
:1026800001F070FEF8E700BFFEE7704770B500216B
:1026900000230F22C47804B3154C246804F4E064CA
:1026A000C4F5E064210AC1F10403CA40447804FA85
:1026B00003F184781440214309010E4C0678A1559A
:1026C000047804F01F050124AC4005786D11AD00BD
:1026D00005F1E025C5F8004109E0047804F01F0584
:1026E0000124AC40044D0678761145F8264070BDB3
:1026F0000CED00E000E400E080E100E0024901436D
:10270000024A1160704700000000FA050CED00E07D
:1027100008B54FF44070FFF7F1FF1E208DF8000060
:102720000D208DF8010000208DF8020001208DF8A9
:1027300003006846FFF7AAFF25208DF800000E2051
:102740008DF8010000208DF8020001208DF80300B3
:102750006846FFF79BFF08BD10B512210620FFF762
:1027600023FA33210720FFF71FFA10BD2DE9F047A8
:10277000DFF868801A49096841F23012501AFDF7F3
:102780000BFE81464146FDF7C9FD07464FF07C51DF
:10279000FDF73AFD0646FDF726FEC0F30714104983
:1027A0000968C1F51660FDF7F7FD81464146FDF762
:1027B000B5FD07464FF07C51FDF726FD0646FDF7B7
:1027C00012FEC0F3071521460920FFF7EDF929464F
:1027D0000A20FFF7E9F9BDE8F08700002506C13EB1
:1027E000300000202DE9FE4F434804887DE0434837
:1027F000B0F80080A04503DBA8EB040080B203E042
:10280000C4F50070404480B28246BAF1080F00D28D
:102810006CE00021204601F0AFFC552805D10121D4
:10282000204601F0A9FCAA2805D0601CC0F30804CA
:10283000FFF70AFF59E00421204601F09DFC0746FE
:102840000521204601F098FC47EA002505F1080023
:1028500086B2642D01D8802E03D9601CC0F3080411
:1028600043E0B24500DA41E0A81D81B2204601F004
:1028700083FC0746E81D81B2204601F07DFC47EA53
:10288000002B281D82B202212046FFF700FA814664
:10289000CB4503D0601CC0F3080426E0022120468B
:1028A00001F06AFC02900321204601F065FC0190D2
:1028B00000200090002D0EDD002708E0B81D81B239
:1028C000204601F059FC0E49C855781C87B2AF422A
:1028D000F4DB0B4800902B46DDE900210298FFF75E
:1028E00025FCA019C0F3080400BF80E700BF024820
:1028F0000480BDE8FE8F0000460000204400002058
:102900006C03002029B1064AD2690243044BDA6104
:1029100004E0034AD2698243014BDA617047000048
:102920000010024029B1064A92690243044B9A61A1
:1029300004E0034A92698243014B9A6170470000A8
:102940000010024030B500210022002400232D4D4C
:102950006D6805F00C0121B1042905D0082923D1A7
:1029600005E0294D056022E0274D05601FE0254D5B
:102970006D6805F47012234D6D6805F480340225EE
:1029800005EB92421CB9214D554305600BE01D4DEE
:102990006D6805F400351DB11C4D5543056002E01E
:1029A000194D5543056002E0174D056000BF00BF9B
:1029B000144D6D6805F0F0010909154D6B5C056853
:1029C000DD4045600F4D6D6805F4E061090A104D6A
:1029D0006B5C4568DD4085600A4D6D6805F46051AB
:1029E000C90A0B4D6B5C4568DD40C560054D6D68DF
:1029F00005F44041890B074D6B5CC568B5FBF3F5E9
:102A0000056130BD0010024000127A0000093D004F
:102A1000140000202400002010B5014600220023ED
:102A200000204A11012A02D1094C236806E0022A3B
:102A300002D1074C236A01E0054C636A01F01F02D2
:102A4000012494401C400CB1012000E0002010BD86
:102A500000100240014908607047000080044242B3
:102A600038B504460D46009501236A46214681206B
:102A700000F002F838BD00002DE9F0478046894695
:102A800016461D46642D01D9BDE8F08705F1080002
:102A90001FFA80FABAF1800F00D9F5E70024552219
:102AA0002146641C1D484254AA222146641C4254FB
:102AB0002146641C00F801802146641C00F8019046
:102AC0002146641C45542A122146641C4254002DA0
:102AD0000CDD5EB1002007E0335C2146621C94B23D
:102AE0000E4A5354411C88B2A842F5DB281D81B21E
:102AF0000A48801CFFF7AEF807462046611C8CB2DE
:102B000006490F543A122046611C8CB203490A54FC
:102B1000E1B2024801F03AFB00BFB5E7EC0000204B
:102B2000F0B5A7B0064618A8FDF7E0FD012801D0D2
:102B300027B0F0BD60216846FDF75BFB60270024ED
:102B40009DF88E202146641C0DF801209DF88F20F1
:102B50002146641C0DF801209DF890202146641C3C
:102B60000DF801209DF891202146641C0DF80120EC
:102B700000BFA01C60280ED8BDF86400C3B2214677
:102B8000621C94B20DF8013003122146621C94B20B
:102B90000DF8013000BF00BF00BFA01C60280FD897
:102BA000BDF96600C3B22146621C94B20DF8013033
:102BB000C0F307232146621C94B20DF8013000BF18
:102BC00000BF002018E000BFA11C602911D822AA74
:102BD00032F9101001F0FF0C2246631C9CB20DF874
:102BE00002C0C1F3072C2246631C9CB20DF802C040
:102BF00000BF00BF411CC8B20328E4D300BFA01C23
:102C000060280ED8BDF89200C3B22246611C8CB277
:102C10000DF8023003122146621C94B20DF8013007
:102C200000BF00BF00BFA01C60280ED8BDF89400F4
:102C3000C3B22146621C94B20DF801300312214642
:102C4000621C94B20DF8013000BF00BF00BFA01C91
:102C500060280ED8BDF89600C3B22146621C94B21B
:102C60000DF8013003122246611C8CB20DF80230BF
:102C700000BF00BF002018E000BFA11C602911D8D0
:102C80001AAA32F9101001F0FF0C2246631C9CB204
:102C90000DF802C0C1F3072C2246631C9CB20DF84C
:102CA00002C000BF00BF411CC8B20F2802D2A11C45
:102CB0006029E1D900BFA01C60280ED8BDF898009B
:102CC000C3B22146621C94B20DF8013003122146B2
:102CD000621C94B20DF8013000BF00BF9DF89A202D
:102CE0002046611C8CB20DF80020189D201D602824
:102CF00019D8EAB22046611C8CB20DF80020C5F349
:102D000007222046611C8CB20DF80020C5F3074253
:102D10002046611C8CB20DF80020280E2146621C52
:102D200094B20DF8010023466A4631469020FFF721
:102D3000A3FE00BFFCE610B500F002F810BD0000D5
:102D40000CB50020019000903348006840F48030BA
:102D50003149086000BF3048006800F4003000903E
:102D60000198401C0190009818B90198B0F5A06F27
:102D7000F1D12948006800F4003010B10120009022
:102D800001E0002000900098012843D1234800680A
:102D900040F01000214908600846006820F0030058
:102DA00008600846006840F0020008601A48406861
:102DB000194948600846406848600846406840F441
:102DC000806048600846406820F47C1048600846EF
:102DD000406840F4E81048600846006840F08070A1
:102DE000086000BF0C48006800F000700028F9D0AF
:102DF0000948406820F003000749486008464068D9
:102E000040F00200486000BF0348406800F00C003A
:102E10000828F9D10CBD000000100240002002403B
:102E200010B500BFBF2080F31188BFF34F8FBFF3F1
:102E30006F8F00BF01F032FF18B14FF0805004498E
:102E4000086000BF002080F3118800BF10BD0000A3
:102E500004ED00E010B5002100200022214B5B684A
:102E600003F00C0121B1042906D0082928D107E07C
:102E70001D4B1E4C236027E01B4B1C4C236023E0A2
:102E8000184B5B6803F47010164B5B6803F48032D8
:102E9000022303EB904022B9154B4343134C2360AC
:102EA0000DE0104B5B6803F4003323B1104B434338
:102EB0000E4C236003E00C4B43430C4C236003E0B7
:102EC000094B0A4C236000BF00BF064B5B68C3F38D
:102ED0000313084CE15C054B1B68CB40034C23609B
:102EE00010BD00000010024000127A000000002017
:102EF00000093D000400002010B51348006840F0B0
:102F000001001149086008464068104908400E4910
:102F10004860084600680E4908400B4908600846AA
:102F2000006820F4802008600846406820F4FE0015
:102F300048604FF41F008860FFF7FDFE4FF000600F
:102F40000449086010BD0000001002400000FFF8B6
:102F5000FFFFF6FE08ED00E010B50121054800F086
:102F60001AF828B10121034800F006F8FEF7E0FE48
:102F700010BD000000080040CA430282704721B122
:102F8000028842F00102028004E002884FF6FE73DC
:102F90001A400280704730B502460020002300240A
:102FA000158A05EA0103958905EA010413B10CB1FC
:102FB000012000E0002030BD1AB183890B438381DA
:102FC00002E083898B438381704700000EB50121A5
:102FD0000420FFF797FC40F2CF20ADF804006320F7
:102FE000ADF800000020ADF80600ADF8020069461B
:102FF000064800F00DF8012211460448FFF7DCFFF7
:1030000001210248FFF7BBFF0EBD00000008004091
:10301000002202881D4B98420ED01D4B98420BD0C7
:10302000B0F1804F08D01B4B984205D01A4B984204
:1030300002D01A4B984204D14FF68F731A404B8836
:103040001A43174B984207D0164B984204D04FF6BC
:10305000FF431A40CB881A4302808B8883850B88F4
:1030600003850A4B98420BD0094B984208D00E4B6F
:10307000984205D00D4B984202D00D4B984201D199
:103080000B7A03860123838270470000002C0140E5
:10309000003401400004004000080040000C0040E3
:1030A0000010004000140040004001400044014076
:1030B0000048014010B540F22551064800F025F8BF
:1030C00038B1044800F0DCF8C4B22046FEF75CFEDC
:1030D00000BF10BD0038014021B1828942F4005286
:1030E000828104E082894DF6FF731A408281704725
:1030F00002460020B1F5007F00D100BF13880B40CD
:103100000BB1012000E00020704770B5024600249A
:1031100000230025002040F66A16B14200D100BF0E
:10312000C1F3421501F01F03012606FA03F3012D36
:1031300002D19689334006E0022D02D1168A33402F
:1031400001E0968A33400C12012606FA04F4168830
:10315000344013B10CB1012000E0002070BDF0B587
:103160000346002400260025002040F66A17B942D5
:1031700000D100BF1846C1F3421401F01F06012719
:1031800007FA06F5012C01D10C3004E0022C01D124
:10319000103000E014301AB107682F43076002E0D6
:1031A0000768AF430760F0BD2DE9F04786B00546DC
:1031B0000E460024A24600BFA1460027B08900B1F8
:1031C00000BF2F462C8A4CF6FF700440F088044361
:1031D0002C82AC894EF6F3100440B0883189084344
:1031E000718908430443AC81AC8A4FF6FF40044028
:1031F000B0890443AC8201A8FFF7A4FB1F488742B3
:1032000002D1DDF810A001E0DDF80CA0A88900F4DF
:10321000004040B10AEBCA0000EB0A1031684900D7
:10322000B0FBF1F807E00AEBCA0000EB0A103168C6
:103230008900B0FBF1F86420B8FBF0F0040120092C
:10324000642101FB1089A88900F4004040B13220BC
:1032500000EBC900B0FBF1F000F00700044308E008
:10326000322000EB09106421B0FBF1F000F00F00F8
:1032700004432C8106B0BDE8F0870000003801400F
:1032800001468888C0F308007047C1F308028280B5
:103290007047000010B586B00446012144F20400D6
:1032A000FFF740FB4FF40070ADF8140018208DF8C4
:1032B000170003208DF8160005A91848FEF728FE10
:1032C0004FF48060ADF8140004208DF8170005A9B4
:1032D0001248FEF71DFE01940020ADF80800ADF87D
:1032E0000A00ADF80C00ADF810000C20ADF80E008F
:1032F00001A90B48FFF758FF012240F22551084869
:10330000FFF72DFF002240F224410548FFF727FF79
:1033100001210348FFF7E0FE06B010BD00080140A0
:103320000038014000BFFEE710B501221102064837
:10333000FEF7CFFE6420FEF791FD00224FF480716E
:103340000148FEF7C6FE10BD0008014070B50546F5
:1033500005B901250120FFF77DFB00BF6120FFF7C4
:103360005BFB0028FAD045F25550FFF747F90420DF
:10337000FFF738F940F2712068434FF47A71B0FBDF
:10338000F1F404B90124B4F5805F01D340F6FF7471
:10339000A0B2FFF72DF9FFF71DF9FFF713F970BD84
:1033A00010B5FFF717F910BD1CB54FF49660FFF785
:1033B000CDFFFFF7F5FF0020042103468022CDE971
:1033C000001004A1054801F023FC012801D000BF32
:1033D000FEE71CBD57646F6700000000E133000882
:1033E00090B000BF00BF01F053FC0F9000BFC82198
:1033F0000FA800F0D1FF6846FDF778F9012800D04A
:10340000F5E701F045FC04464FF47A7060434FF451
:103410007A71B0FBF1F50098A84202D80098281AFA
:1034200000E000200646B6F57A7F01D8FFF7B8FF26
:10343000DDE700214FF07E50FCF770BF0121FDF762
:1034400032B800210846FCF769BF02E008C8121F25
:1034500008C1002AFAD170477047002001E001C17D
:10346000121F002AFBD17047014908607047000015
:10347000E800002003468B4201DA08467047934279
:1034800001DD1046FAE71846F8E703468B4201DAF9
:1034900008467047934201DD1046FAE71846F8E700
:1034A00070B5044600212046FCF7B2FF01D200208F
:1034B00070BD09492046FCF7B5FF02D24FF6FF70F8
:1034C000F6E74FF07C512046FCF79EFE0546FCF7E0
:1034D0008AFF80B2ECE7000000FF7F4770B504462A
:1034E00000212046FCF794FF01D2002070BD08495E
:1034F0002046FCF797FF01D2FF20F7E74FF07C5101
:103500002046FCF781FE0546FCF76DFFC0B2EDE7F3
:1035100000007F4370B506460D46144629463046E6
:10352000FCF776FF01D2284670BD21463046FCF7F5
:1035300079FF01D22046F7E73046F5E710B501F0F4
:1035400097FB012802D001F0A3FB10BD01480068E1
:10355000FBE70000400000200146012901DB0F29A4
:1035600001DD00207047481E024A1288024102F025
:103570000100F7E73C0000202DE9F0410026A0F50E
:103580000001B1F1FE4F7DD200F500226FF07E0107
:1035900001EBE251C2F3025477184FF07E52A0EBD8
:1035A000C15602EB045557EA040047D0294630467D
:1035B000FCF72AFE804629463046FCF777FE414656
:1035C000FCF7ACFE05460146FCF776FE8046454911
:1035D000FCF772FE4449FCF717FE064641462846B2
:1035E000FCF76AFE3146FCF767FE06463846FCF7F4
:1035F000D3FE07463D49FCF75FFE3D49794451F84B
:103600002410FCF701FE3146FCF7FEFD06460121C1
:103610002846FCF748FF3146FCF7F6FD05463846DC
:103620003449FCF749FE3449794451F82410FCF739
:10363000EBFD2946BDE8F041FCF7E6BD4FF07E51B9
:103640003046FCF733FE05462C49FCF735FE2C4985
:10365000FCF7DAFD2946FCF72FFE2A49FCF7D4FDDA
:103660002946FCF729FE6FF08241FCF7CDFD0446A8
:1036700029460846FCF720FE2146FCF71DFE0146C0
:10368000284600E003E0BDE8F041FCF7BDBD4FF087
:103690007F42B2EB400F03D2BDE8F041FFF7CEBE50
:1036A000B0F1FF4F08BFBDE8F081B0F1004F06D97F
:1036B0000120FFF7D9FEBDE8F041FFF7C2BE30F0B0
:1036C000004105D06FF016061721FCF7ECFE5BE712
:1036D0000220FFF7C9FEFFF7ACFE80F00040BDE816
:1036E000F081000066F1CC3EAAAA2A3FF4FD05381D
:1036F000481B00000070313FFC1A000021ED423EE3
:103700000A1180BEC1ABAA3E1CB5FFF7A3FBFEF7B2
:10371000A1FBFEF779FFFEF701FEFEF7F9FFFFF7C9
:1037200055FC4FF4E130FFF7B5FDFEF749F8FCF723
:10373000D9FEFEF7D9FAFFF737FE00200221034633
:103740000A02CDE900100DA10E4801F061FA01282E
:1037500001D000BFFEE70020012103468022CDE911
:10376000001009A1094801F053FA012801D000BF57
:10377000FEE700F0EFFE00BFFEE70000436F6D6D57
:1037800000000000D91C00084C45440075260008C4
:103790002DE9F04105460E461C4807681C480068A4
:1037A000001D00F011FD50B91948006890F82C1068
:1037B0000120884017490968814316480160681C48
:1037C00038B936B112480168091D134800F048FDA8
:1037D0001AE07C190E4800684460BC4207D20C48CD
:1037E0000168091D0D48006800F020FD0CE0084844
:1037F0000168091D0A48006800F018FD09480068C2
:10380000844201D207480460BDE8F081AC0000208A
:1038100098000020B000002018490020A0000020DF
:103820009C000020C800002010B5044600F024FDD4
:1038300023480068401C224908602248006840B9BB
:10384000204804600846006801280DD100F0C4F942
:103850000AE01D48006838B91A480068C06AE16A81
:10386000884201D81748046018480068401C17496E
:10387000086094F82C100120884015490968084315
:1038800013490860E16A01EB8101124A02EB8100F1
:10389000211D00F0E5FC00F001FD0B48006868B157
:1038A00008480068C06AE16A884207D24FF0805039
:1038B00009490860BFF34F8FBFF36F8F10BD000041
:1038C000A800002098000020B4000020C4000020C0
:1038D000B00000206448002004ED00E010B500F0C6
:1038E000CBFC0C48006890B90B4800F08FFC0B48EB
:1038F00000F08CFC08480A4908600848094908603B
:1039000000220C21082000F07AFF0249086000F034
:10391000C5FC10BDDC0000202C49002040490020DF
:10392000D4000020D800002070B523E000F04AFE4B
:103930001348006808B9012000E00020054601F0A6
:10394000F5FABDB900F098FC0D48C068C468201DA8
:1039500000F03AFC0B480068401E0A4908600A481B
:103960000068401E0849086000F098FC204600F0FE
:1039700060F800BF044800680028D7D170BD00007F
:1039800004490020A8000020A400002070B50446CF
:103990000D46206C70B1216CE0680844E0606168FD
:1039A000E068884201D32068E0602846226CE16824
:1039B000FCF706FC70BD2DE9F04104460F461546A4
:1039C0004FF00008A66B206C40B9206860BB6068AF
:1039D00001F0F2F980460020606025E07DB93946AB
:1039E000226CA068FCF7ECFB216CA0680844A06086
:1039F000D4E90110884217D32068A06014E039464A
:103A0000226CE068FCF7DCFB216CE068401AE060A7
:103A10002168E068884203D2216C6068401AE06047
:103A2000022D01D106B1761E701CA0634046BDE890
:103A3000F08110B50446206B00F040FC204600F0F9
:103A40003DFC10BD0146084A126812680AB90122FD
:103A500000E000220A600A6822B9034A1268D268AC
:103A6000106800E000207047D400002030B54FF40B
:103A70008843174800F007042CB1C01D20F0070050
:103A8000134C041B1B1B0246124C22600024114DD8
:103A90006C60D018083820F007000F4C206000241C
:103AA0000D4D2D686C600C4D2D682C601146441A2C
:103AB0004C60094C24680C60084D4C682C60084D23
:103AC0004C682C604FF00044064D2C6030BD000067
:103AD000620400207C000020840000208C00002074
:103AE000880000209000002000BFFFF71DFF06485F
:103AF00000680128F9D94FF0805004490860BFF3ED
:103B00004F8FBFF36F8FF0E76448002004ED00E0B3
:103B100010B504464CB1002060602060E0600023D6
:103B20001A461946204600F075FF10BD2DE9F041F8
:103B300006460D4617469846069C0DB9246000E0DF
:103B40002760E66325640121204600F023FFBDE8DD
:103B5000F0812DE9FF5F80460F469146DDE90E6A50
:103B6000109CA9F10100216B01EB800B2BF0070BDE
:103B7000002507E0795D04F134004155785D00B916
:103B800002E06D1C102DF5D300BF0021432001552C
:103B9000052E00D30426E66266640020A064201D82
:103BA00000F041FB04F1180000F03DFB2461C6F178
:103BB0000500A06164620020E06484F85000414682
:103BC0005846039A00F0C6FA2060BAF1000F01D0FF
:103BD000CAF80040BDE8FF9F10B5002407E004EBE1
:103BE00084010F4A02EB810000F010FB641C052CDD
:103BF000F5D30C4800F00AFB0B4800F007FB0B481C
:103C000000F004FB0A4800F001FB0A4800F0FEFA4D
:103C100004480949086004480849086010BD0000CC
:103C200064480020C8480020DC480020F0480020FC
:103C300004490020184900209C000020A00000201A
:103C400010B50146164800E0006803688B42FBD3BC
:103C50000246436813448B4204D143684C682344B2
:103C6000436001460A464B6813440468A34211D1DD
:103C70000C4C03682468A34208D04B68046864684D
:103C800023444B6003681B680B6005E0054B1B6811
:103C90000B6001E003680B60884200D0016010BD3A
:103CA0007C000020840000202DE9F04104460D46F0
:103CB00016461F464FF0000865602461B5420CD8D7
:103CC000F01BA169884202D34FF0010811E0211DC9
:103CD0000948006800F0AAFA0BE0BE4204D2BD42D7
:103CE00002D34FF0010804E0211D0448006800F0F1
:103CF0009DFA4046BDE8F081D8000020D4000020A5
:103D000070B5054600F0B8FAA86B08B9012400E0C8
:103D1000002400F0C3FA204670BD70B5054600F0DF
:103D2000ABFAA86BE96B884201D1012400E00024C2
:103D300000F0B4FA204670BDF8B505460E461048AE
:103D40000068C068C468201D00F03EFAE0690128E0
:103D500011D1A06941192B4632462046FFF7A4FF36
:103D600048B1002003462A4601460090204601F053
:103D70006FF9074600BF2046616A8847F8BD00001A
:103D8000D400002070B586B04DE0039800284ADBCF
:103D9000059C606908B9012000E0002010B9201DD1
:103DA00000F012FA02A800F09FF8054603980A28CE
:103DB00037D2DFE800F00905072527320608262854
:103DC00000BF00BF00BF00BF0498A269811803466E
:103DD0002A462046FFF768FF88B12046616A884777
:103DE000E06901280BD1002000900498A1694218D5
:103DF00000231946204601F02BF9064600BF11E0CA
:103E000000BF0FE000BF0498A061A06941192B46D4
:103E10002A462046FFF748FF04E0204600F04EFA0D
:103E200000E000BF00BF00231A4603A90348006852
:103E300000F002FD0028A8D106B070BDDC00002013
:103E4000F8B505460C4600F0BDFB684600F04CF89E
:103E50000646009820BB44B9B54206D801F066F882
:103E600031462846FFF768FF1CE03CB10E48006869
:103E7000006808B9012000E000200446A91B224682
:103E80000A48006800F048FA01F050F850B94FF0C5
:103E9000805007490860BFF34F8FBFF36F8F01E079
:103EA00001F044F8F8BD0000D8000020DC0000203C
:103EB00004ED00E00A490968096809B9012100E038
:103EC000002121B14FF0FF31064A116006E004499C
:103ED0000968C968C868034A4168116070470000F2
:103EE0009C000020C800002070B5044600F0D0FE01
:103EF000054607480068854204D200F00BF801200F
:103F0000206001E00020206001480560284670BD67
:103F1000E40000202DE9F84326E01D480068C06851
:103F200005681B480068C068C468201D00F04CF993
:103F30002046616A8847E069012815D1A0694619C1
:103F4000AE4207D966602461211D1148006800F067
:103F50006DF909E0002003462A46014600902046FC
:103F600001F076F8804600BF09480068006808B98B
:103F7000012000E000200028CFD005480768054850
:103F800000680349086003480760BDE8F883000043
:103F9000D4000020D800002000BFBF2080F311888B
:103FA000BFF34F8FBFF36F8F00BF00BFFEE710B5A9
:103FB0000346002022B903EA010434B1012004E0E1
:103FC00003EA01048C4200D1012010BD08B500BFF6
:103FD0006846FFF737FD044620460099FFF730FF9B
:103FE000FFF7D0FEF4E770B5044600F045F994F908
:103FF000455010E0606A08B9012000E0002038B99F
:1040000004F1240000F01AFF18B100F0FFF900E0FD
:1040100003E0681E45B2002DECDC00BFFF2084F8F1
:10402000450000F03BF900F027F994F9445010E006
:10403000206908B9012000E0002048B904F110000F
:1040400000F0FCFE08B100F0E1F9681E45B200E0A6
:1040500001E0002DECDC00BFFF2084F8440000F0FC
:104060001DF970BD2DE9F04105464FF0000800F044
:10407000A9FA2B48006808B9FFF7F8FC294800683E
:104080002840002847D145B1083505F0070020B188
:1040900005F00700C0F108000544002D3BD0224880
:1040A0000068854237D8214E3046046801E0264634
:1040B00024686068A84202D220680028F7D1184816
:1040C0000068844227D0306800F10808206830601A
:1040D0006068401B102807D967196068401B78602A
:1040E00065603846FFF7ACFD0F4960680968081A3B
:1040F0000D490860084600680D490968884203D2E6
:10410000094800680A490860064960680968084368
:1041100060600020206000F009FF4046BDE8F081AB
:104120008400002090000020880000207C000020F7
:104130008C0000200648006830B10549096801F18B
:104140004800896C491C0160014800687047000004
:1041500098000020001F4FF080730360001F21F0C3
:1041600001030360001F034B036014380260203812
:1041700070470000993F000802465018C0F308003D
:10418000014B185C704700006C01002070B50546BB
:104190000E4600240CE000BF80210A48FEF7A8FF6D
:1041A0000028F9D0295D0748FFF76FF8601CC4B2FA
:1041B000B442F0DB00BF40210248FEF799FF00281F
:1041C000F9D070BD0038014001460A69D1E90130DB
:1041D0009860D1E9010358605068884201D188682D
:1041E0005060002008611068401E10601068704721
:1041F00005490968886904490968C96AC1F1050166
:10420000014A1268916170479800002000F108018E
:1042100041604FF0FF31816000F10801C160016130
:1042200000210160704700210161704710B502460E
:104230000B685C1C0CB9106907E002F1080000E093
:104240004068446824689C42FAD944684C604C68D1
:10425000A160886041600A611468641C146010BD2C
:1042600042684A6093688B60936859609160086106
:1042700003685B1C0360704700BFBF2080F3118898
:10428000BFF34F8FBFF36F8F00BF03480068401C20
:10429000014908607047000094000020064800684B
:1042A000401E054908600846006820B9002080F3D8
:1042B000118800BF00BF70479400002070B506460B
:1042C0003546D6B1083D2C460C496068096808405F
:1042D00098B1206888B909496068096888436060B6
:1042E00000F070F9064960680968084404490860EC
:1042F0002046FFF7A5FC00F019FE70BD90000020DD
:104300008800002003484FF0E02148610720086141
:10431000704700003F1901002DE9F04105460E46A7
:1043200017462C46FFF7A8FF94F94400401C10B92B
:10433000002084F8440094F94500401C10B9002086
:1043400084F84500FFF7AAFFA06B28B93A4631462A
:1043500004F1240000F070F82046FFF744FEBDE8A9
:10436000F081000070B50446002544B100F02AF940
:1043700000212046FFF70CFA00F0D8FD05463DB9B4
:104380004FF0805003490860BFF34F8FBFF36F8F2A
:1043900070BD000004ED00E02DE9F04704468846BA
:1043A0004FF0000900F00EF916480668206800EB8F
:1043B00008052068B04207D92068A8420BD9B54249
:1043C00009D94FF0010906E02068A84201D8B5429A
:1043D00001D94FF001092560B9F1000F03D0A81BE6
:1043E0000021FFF7D5F900F0A1FD07463FB94FF0D6
:1043F000805005490860BFF34F8FBFF36F8FBDE852
:10440000F0870000AC00002004ED00E0012001492D
:1044100008607047BC00002070B505460C46054892
:10442000016818312846FFF701FF01212046FFF7F8
:10443000AFF970BD9800002070B506460D461446D1
:104440000648016818313046FFF70AFF0CB14FF0FB
:10445000FF3521462846FFF79BF970BD98000020E4
:1044600070B506460C46154644F0004006490968FA
:1044700088610548016818313046FFF7F1FE0121D7
:104480002846FFF785F970BD9800002070B50546F5
:104490002C46002D4BD02649E06A0968C96A88423B
:1044A00045D2A06900F0004028B921480068C06AE0
:1044B000C0F10500A061E16A01EB81011D4A02EB38
:1044C00081016069884201D1012000E0002050B3E1
:1044D000201DFFF779FE78B9E06A00EB80001549EE
:1044E00051F8200040B994F82C100120884012495E
:1044F00009688143104801600D480068C06AE062A5
:1045000094F82C10012088400B49096808430A4997
:104510000860E16A01EB8101064A02EB8100211D7E
:10452000FFF79EFE03E002480068C06AE06270BDCB
:104530009800002064480020B0000020034909686A
:10454000016003490968416070470000C000002015
:10455000AC0000201CB5144800210B468022CDE998
:10456000001012A1134800F053FB0446012C02D1A5
:1045700000F050FD0446012C14D100BFBF2080F391
:104580001188BFF34F8FBFF36F8F00BF4FF0FF3025
:1045900009490860012009490860002008490860AD
:1045A00000F002F91CBD0000CC00002049444C453D
:1045B00000000000E93A0008C8000020B400002014
:1045C000AC00002002480068401C014908607047A8
:1045D000D00000201248006818B10120114908607D
:1045E0001DE000200F4908600F480068B0FA80F015
:1045F000C0F11F0101EB81020C4B03EB820042680A
:104600005268426000F108024368934202D1426856
:10461000526842604268D268054B1A6000BF70471A
:10462000D0000020BC000020B00000206448002022
:104630009800002010B51820FFF714FD044624B19F
:1046400000202060201DFFF7E1FD204610BD2DE970
:10465000FE4F06468946002001903446009004F142
:10466000040B0BF108000290FFF7ACFFDBF80C70B5
:10467000206840EA0900206026E0D7F804A03D68E1
:104680000020009005F07F4825F07F4508F080600D
:1046900028B92068284040B10120009005E020683A
:1046A0002840A84201D101200090009858B108F09C
:1046B000807010B1019828430190206840F000718B
:1046C000384600F0FBFB574602988742D5D1206858
:1046D00001998843206000F029FC2068BDE8FE8F26
:1046E0002DE9FF5F80460E4617469946DDF838A053
:1046F00044464FF0000B00200190FFF763FF206855
:1047000000904A4631460098FFF751FC0390039809
:1047100030B1009DDA46BFB12068B043206013E09D
:10472000BAF1000F01D1009D0EE00FB14BF0807B7C
:10473000B9F1000F01D04BF0806B46EA0B015246F5
:10474000201DFFF78DFE002500F0F0FB0290BAF16E
:10475000000F22D0029838B94FF0805011490860FC
:10476000BFF34F8FBFF36F8FFFF742FD054605F094
:10477000007080B9FFF780FD25684A46314628461B
:10478000FFF715FC18B117B12068B0432060FFF7A0
:1047900085FD0020019025F07F45284604B0BDE846
:1047A000F09F000004ED00E010B50A48006840F4F6
:1047B0007F00084908600846006840F07F400860B4
:1047C000FFF7A0FD002004490860FBF7ADFC0020C6
:1047D00010BD000020ED00E0940000202DE9F04124
:1047E00004460126002722460021012000F007F898
:1047F00005462846FFF78CF92846BDE8F0812DE9EB
:10480000F84307460D4690460DB9002601E007FB28
:1048100005F606F14800FFF725FC044644B104F113
:10482000480943464A46294638460094FFF77EF930
:104830002046BDE8F88300002DE9FF4782B0054619
:1048400089461E464FF0000A2C4600BFFFF714FDB4
:10485000D4F83880B8F1000F3BD0E76849462046CD
:10486000FFF794F8DEB9A8F10100A063206810B941
:10487000FFF760FC6060206908B9012000E00020BB
:1048800008BB04F1100000F0D9FAE0B14FF08050FD
:104890003F490860BFF34F8FBFF36F8F13E0E760AE
:1048A000606A08B9012000E0002060B904F124002A
:1048B00000F0C4FA38B14FF0805035490860BFF3BA
:1048C0004F8FBFF36F8FFFF7E9FC012006B0BDE803
:1048D000F087049818B9FFF7E1FC0020F6E7BAF179
:1048E000000F04D16846FFF729FE4FF0010AFFF7D9
:1048F000D5FCFFF767FEFFF7BFFC94F94400401CAE
:1049000010B9002084F8440094F94500401C10B907
:10491000002084F84500FFF7C1FC04A9684600F0B8
:1049200049F940BB2046FFF7EBF9F0B1206830B9F8
:10493000FFF7A2FC6068FFF7A9FDFFF7AFFC04F1E9
:1049400024000499FFF768FD2046FFF74CFB00F0B8
:10495000EDFA00287FF47AAF4FF080500C490860E0
:10496000BFF34F8FBFF36F8F70E72046FFF73BFB1E
:1049700000F0DCFA6AE72046FFF735FB00F0D6FAD4
:104980002046FFF7BDF90028EED000209EE700008A
:1049900004ED00E070B505460E462C46FFF76CFCB2
:1049A000D4E90F12206801FB020060600020A063C0
:1049B0002068A060E06B401E226C216800FB0210A2
:1049C000E060FF2084F8440084F845009EB9206927
:1049D00008B9012000E00020A8B904F1100000F09F
:1049E0002DFA80B14FF0805009490860BFF34F8F16
:1049F000BFF36F8F07E004F11000FFF707FC04F12D
:104A00002400FFF703FCFFF749FC012070BD000004
:104A100004ED00E02DE9FF4383B0074688461D46BC
:104A20004FF000093C4600BFFFF726FCA06BE16B8E
:104A3000884201D3022D28D12A4641462046FEF75E
:104A4000BAFF0646606A08B9012000E0002068B994
:104A500004F1240000F0F2F988B14FF0805032499F
:104A60000860BFF34F8FBFF36F8F08E03EB14FF088
:104A700080502D490860BFF34F8FBFF36F8FFFF752
:104A80000DFC012007B0BDE8F083059818B9FFF7C9
:104A900005FC0020F6E7B9F1000F04D101A8FFF7EB
:104AA0004DFD4FF00109FFF7F9FBFFF78BFDFFF715
:104AB000E3FB94F94400401C10B9002084F8440042
:104AC00094F94500401C10B9002084F84500FFF718
:104AD000E5FB05A901A800F06DF8F0B92046FFF745
:104AE0001CF9A0B104F110000599FFF795FC2046D0
:104AF000FFF779FA00F01AFA002895D14FF08050AC
:104B000009490860BFF34F8FBFF36F8F8CE72046D2
:104B1000FFF769FA00F00AFA86E72046FFF763FA22
:104B200000F004FA0020ADE704ED00E02DE9F05FAD
:104B300005468A4616461F462C4600BFBF21EFF3A6
:104B4000118081F31188BFF34F8FBFF36F8F00BFC8
:104B50008146A06BE16B884201D3022F20D194F9EA
:104B600045B03A4651462046FEF725FF0BF10100BD
:104B700070B9606A08B9012000E0002068B904F14A
:104B8000240000F05BF940B13EB10120306004E048
:104B90000BF1010040B284F845004FF0010801E03C
:104BA0004FF0000800BF89F3118800BF4046BDE800
:104BB000F09F000070B504460D46FFF75DFB1248FC
:104BC00002682868401C08B9002619E00F492068CF
:104BD0000968884204D06068904201D801260FE03D
:104BE0006068101A2968884209D228686168511AD9
:104BF000401A28602046FFF7A1FC002600E00126AD
:104C0000FFF74CFB304670BDAC000020C000002018
:104C10002DE9FF4F85B0804689461746DDE912AB86
:104C2000B800FFF71FFA064656B15420FFF71AFAEC
:104C300004460CB1266304E03046FFF73FFB00E07A
:104C400000247CB10020CDE900ABCDE902403A461A
:104C500049464046089BFEF77CFF2046FEF7E4FDF0
:104C6000012501E04FF0FF35284609B0BDE8F08F7F
:104C70000549096809B9012005E00449096809B92D
:104C8000022000E000207047B4000020D000002087
:104C90000149086870470000AC0000202DE9F04190
:104CA00000273A480068002863D139480068451C4D
:104CB000374805608DB93748D0F80080364800681D
:104CC000344908603448C0F8008034480068401C0B
:104CD00032490860FFF7EEF800BF314800688542AE
:104CE0003BD300BF2B480068006808B9012000E0F2
:104CF000002020B14FF0FF30294908602CE0254802
:104D00000068C068C4686668B54202D2244806607C
:104D100022E0201DFFF758FAA06A18B104F118002C
:104D2000FFF752FA94F82C10012088401D490968B9
:104D300008431C490860E16A01EB81011A4A02EB51
:104D40008100211DFFF78CFA1849E06A0968C96AD9
:104D50008842C7D30127C5E700BF14480068C06A6E
:104D600000EB8000104951F82000012800D90127EC
:104D700004E00F480068401C0D4908600D480068B9
:104D800000B101273846BDE8F0810000D0000020C6
:104D9000AC0000209C000020A0000020C0000020EB
:104DA000C8000020B00000206448002098000020C7
:104DB000B8000020BC00002070B505462C46002637
:104DC000ADB3A06C401EA064616CE06A88422ED036
:104DD000A06C60BB201DFFF7F7F978B9E06A00EB23
:104DE0008000144951F8200040B994F82C1001209B
:104DF00088401149096881430F480160606CE06296
:104E0000E06AC0F10500A06194F82C1001208840F0
:104E100009490968084308490860E16A01EB810112
:104E2000044A02EB8100211DFFF71AFA01263046E1
:104E300070BD000064480020B000002070B5064638
:104E4000F068C46804F11800FFF7BEF9154800685F
:104E5000A8B9201DFFF7B8F994F82C10012088405C
:104E600011490968084310490860E16A01EB8101B2
:104E70000E4A02EB8100211DFFF7F2F904E004F174
:104E800018010B48FFF7ECF90A49E06A0968C96A9A
:104E9000884204D9012501200749086000E0002567
:104EA000284670BDD0000020B000002064480020DB
:104EB000F048002098000020BC0000202DE9F041BF
:104EC00005460F4647F000402860EC682846FFF78B
:104ED0007BF9201DFFF778F994F82C100120884009
:104EE0000E49096808430D490860E16A01EB810138
:104EF0000B4A02EB8100211DFFF7B2F90949E06A74
:104F00000968C96A884204D9012601200649086057
:104F100000E000263046BDE8F0810000B00000202F
:104F20006448002098000020BC00002070B50024D8
:104F30000026FFF7A1F92E480068401E2C490860A2
:104F40000846006800284FD12A48006800284BD046
:104F500024E02948C068C46804F11800FFF734F958
:104F6000201DFFF731F994F82C10012088402349C7
:104F70000968084321490860E16A01EB8101204A80
:104F800002EB8100211DFFF76BF91E49E06A0968F9
:104F9000C96A884202D301201B490860164800688C
:104FA00008B9012000E000200028D2D00CB1FEF7A3
:104FB00081FF1648056865B100BFFFF76FFE10B1AD
:104FC0000120114908606D1E002DF6D100200F4907
:104FD00008600D48006838B1012630070C490860A8
:104FE000BFF34F8FBFF36F8FFFF758F9304670BD97
:104FF000D0000020A8000020F0480020B0000020D1
:105000006448002098000020BC000020B800002068
:1050100004ED00E01CB50024FEF760FC07480068C2
:1050200050B10748042100238A01CDE9001005A1F1
:105030000648FFF7EDFD044620461CBDDC000020BD
:10504000E0000020546D722053766300CD3F0008CD
:105050002DE9FE4305460C4616461F46DDF828801E
:105060004FF000091448006810B3009401960295AF
:10507000062C15DAFFF7FCFD022808D10023424672
:1050800069460D480068FFF7C5FC814610E0002323
:105090001A46694608480068FFF7BCFC814607E0ED
:1050A00000233A46694604480068FFF73FFD814601
:1050B0004846BDE8FE830000DC000020000102033A
:1050C0000405060708090A0B7F00000018430000CA
:1050D000000000196810640040105F000E105A00B4
:1050E000F00F5500B40F50008C0F4B00640F4600BA
:1050F0003C0F4100140F3C00EC0E3700CE0E320086
:10510000B00E2D00920E2800740E2300560E1E00C5
:10511000380E19001A0E1400F20D0F00AC0D0A0023
:10512000480D0500B80B0000000000000030F13D04
:105130000070643E0000A33E0090CF3E0090F83E19
:1051400000400F3F00E0203F0000000015B783370C
:10515000CDE37B380EE1C53860F69138AF5F0F388C
:10516000E1BC3E3823F44739885100080000002094
:10517000EC0000004A34000874520008EC000020E3
:105180006C4C00005A34000800A24A0400000000E1
:1051900000000000010203040607080900000000E7
:1051A00001020304010203040607080902040608B9
:1051B00000000000000000000000000000000000EF
:1051C00000000000734E000000000000000000001E
:1051D000000000000000F4010000000000000000DA
:1051E0000000000000000000681004108C0A220B70
:1051F000A00F0000C2010000580238FF00000000AC
:10520000000000000000000000000000000000009E
:10521000000000000000000000000000AAAAAAAAE6
:10522000000000000000000000000000000000007E
:10523000000000000000000000000000000000006E
:10524000000000000000000000000000000000005E
:10525000000000000000000000000000000000004E
:10526000000000000000000000000000000000003E
:04527000000000003A
:04000005080000ED02
:00000001FF
