:020000040800F2
:10000000300500209D010008F50300089703000853
:10001000F1030008E5010008650800080000000081
:1000200000000000000000000000000005010008C2
:10003000E90100080000000049010008FD05000872
:10004000B7010008B7010008B7010008B7010008B0
:10005000B7010008B7010008B7010008B7010008A0
:10006000B7010008B7010008B7010008B701000890
:10007000B7010008B7010008B7010008B701000880
:10008000B7010008B7010008B7010008B701000870
:10009000B7010008B7010008B7010008B701000860
:1000A000B7010008B7010008B7010008B701000850
:1000B000B7010008B7010008B7010008B701000840
:1000C000B7010008B7010008B7010008B701000830
:1000D000B7010008B7010008B7010008B701000820
:1000E000B7010008B7010008B7010008DFF810D019
:1000F00000F066F80048004787080008AFF300806A
:1001000030050020224B19680868B0E8F00F80F332
:100110000988BFF36F8F4FF0000080F311884EF015
:100120000D0E70470000000006480068006880F36C
:10013000088862B661B6BFF34F8FBFF36F8F00DFE1
:1001400000BF00BF08ED00E0EFF30980BFF36F8F41
:100150000F4B1A6820E9F00F106008B54FF0BF0090
:1001600080F31188BFF34F8FBFF36F8F00F0D8FB80
:100170004FF0000080F31188BDE808401968086856
:10018000B0E8F00F80F30988BFF36F8F704700BFAE
:1001900028000020EFF305807047000006488047E4
:1001A00006480047FEE7FEE7FEE7FEE7FEE7FEE75C
:1001B000FEE7FEE7FEE7FEE731060008ED00000877
:1001C000064C074D06E0E06840F0010394E80700A4
:1001D00098471034AC42F6D3FFF78CFF9C0A000816
:1001E000BC0A000800BFFEE77047000010B56FF0C2
:1001F000040000F0EFF90A4800680A49B0FBF1F08A
:10020000094908700846007800EB4001C1EBC010B6
:100210004FF6FF7101EAC0000449088010BD0000DC
:100220000000002000127A00640000206600002018
:10023000014600224FF0E0231A610E4A12884A4319
:100240005A6100229A611A46126942F001021A614B
:1002500000BF4FF0E022106900F001021AB100F473
:100260008032002AF5D000224FF0E0231A619A6113
:1002700070470000660000202DE9F041024600258D
:100280000026002000230024002791F803C00CF072
:100290000F0591F803C00CF0100CBCF1000F03D057
:1002A00091F802C04CEA050591F800C0BCF1000FBE
:1002B00031D0146800202BE04FF0010C0CFA00F351
:1002C000B1F800C00CEA03069E4220D183004FF033
:1002D0000F0C0CFA03F7BC4305FA03FC4CEA0404C8
:1002E00091F803C0BCF1280F06D14FF0010C0CFAB5
:1002F00000FCC2F814C00AE091F803C0BCF1480F3A
:1003000005D14FF0010C0CFA00FCC2F810C0401CE3
:100310000828D1D31460B1F800C0BCF1FF0F34DD60
:10032000546800202EE000F1080C4FF0010808FA94
:100330000CF3B1F800C00CEA03069E4221D1830001
:100340004FF00F0C0CFA03F7BC4305FA03FC4CEA20
:10035000040491F803C0BCF1280F05D100F1080C8A
:1003600008FA0CF8C2F8148091F803C0BCF1480FE9
:1003700007D100F1080C4FF0010808FA0CF8C2F898
:100380001080401C0828CED35460BDE8F081416144
:1003900070470161704700BFFEE7000008B501210A
:1003A000042000F029F84FF40040ADF800001020C0
:1003B0008DF8030003208DF8020069460148FFF71D
:1003C0005BFF08BD0008014010B54FF40041024832
:1003D000FFF7DFFF10BD00000008014010B54FF42B
:1003E00000410248FFF7D3FF10BD000000080140A4
:1003F00000BFFEE77047000029B1064A9269024338
:10040000044B9A6104E0034A92698243014B9A616A
:10041000704700000010024030B500210022002487
:1004200000232D4D6D6805F00C0121B1042905D084
:10043000082923D105E0294D056022E0274D0560FC
:100440001FE0254D6D6805F47012234D6D6805F4AD
:100450008034022505EB92421CB9214D55430560BD
:100460000BE01D4D6D6805F400351DB11C4D554365
:10047000056002E0194D5543056002E0174D056027
:1004800000BF00BF144D6D6805F0F0010909154D5E
:100490006B5C0568DD4045600F4D6D6805F4E061FB
:1004A000090A104D6B5C4568DD4085600A4D6D683A
:1004B00005F46051C90A0B4D6B5C4568DD40C560B1
:1004C000054D6D6805F44041890B074D6B5CC568AF
:1004D000B5FBF3F5056130BD0010024000127A0053
:1004E00000093D00140000202400002010B500F099
:1004F00001F810BD0CB50020019000903348006851
:1005000040F480303149086000BF3048006800F492
:10051000003000900198401C0190009818B9019893
:10052000B0F5A06FF1D12948006800F4003010B197
:100530000120009001E0002000900098012843D1A4
:100540002348006840F01000214908600846006810
:1005500020F0030008600846006840F002000860D0
:100560001A4840681949486008464068486008468B
:10057000406840F4806048600846406820F47C1081
:1005800048600846406840F4E81048600846006843
:1005900040F08070086000BF0C48006800F00070F8
:1005A0000028F9D00948406820F003000749486056
:1005B0000846406840F00200486000BF03484068B9
:1005C00000F00C000828F9D10CBD0000001002401A
:1005D00000200240042808D14FF0E021096941F0D1
:1005E00004014FF0E022116107E04FF0E0210969BA
:1005F00021F004014FF0E0221161704710B500BFF7
:10060000BF2080F31188BFF34F8FBFF36F8F00BF00
:1006100000F0B6F918B14FF080500449086000BFEF
:10062000002080F3118800BF10BD000004ED00E041
:1006300010B51348006840F00100114908600846F1
:100640004068104908400E494860084600680E4955
:1006500008400B4908600846006820F480200860C4
:100660000846406820F4FE0048604FF41F00886090
:10067000FFF73CFF4FF000600449086010BD000028
:10068000001002400000FFF8FFFFF6FE08ED00E05A
:1006900021B1828942F40052828104E082894DF6C0
:1006A000FF731A4082817047F0B50346002400268C
:1006B0000025002040F66A17B94200D100BF184655
:1006C000C1F3421401F01F06012707FA06F5012CB9
:1006D00001D10C3004E0022C01D1103000E01430C4
:1006E0001AB107682F43076002E00768AF4307604D
:1006F000F0BD00002DE9F04786B005460E46002407
:10070000A24600BFA1460027B08900B100BF2F4616
:100710002C8A4CF6FF700440F08804432C82AC898C
:100720004EF6F3100440B0883189084371890843BC
:100730000443AC81AC8A4FF6FF400440B0890443C7
:10074000AC8201A8FFF768FE1F48874202D1DDF89E
:1007500010A001E0DDF80CA0A88900F4004040B131
:100760000AEBCA0000EB0A1031684900B0FBF1F84F
:1007700007E00AEBCA0000EB0A1031688900B0FB01
:10078000F1F86420B8FBF0F004012009642101FBBA
:100790001089A88900F4004040B1322000EBC90064
:1007A000B0FBF1F000F00700044308E0322000EB5A
:1007B00009106421B0FBF1F000F00F0004432C811C
:1007C00006B0BDE8F08700000038014010B586B0E3
:1007D0000446012144F20400FFF70EFE4FF40070BE
:1007E000ADF8140018208DF8170003208DF81600BE
:1007F00005A91A48FFF740FD4FF48060ADF81400DA
:1008000004208DF8170003208DF8160005A9134861
:10081000FFF732FD0C20ADF80E000020ADF80C0003
:100820000194ADF80A00ADF80800ADF8100001A978
:100830000B48FFF75FFF012240F225510848FFF700
:1008400033FF012240F224410548FFF72DFF01212B
:100850000348FFF71DFF06B010BD0000000801406F
:100860000038014000BFFEE702E008C8121F08C1BF
:10087000002AFAD170477047002001E001C1121F21
:10088000002AFBD17047FFF789FDFFF7AFFC4FF45B
:10089000E120FFF79BFF07E0FFF7A0FD4FF4967004
:1008A000FFF7C6FCFFF790FDF6E700000A4909686C
:1008B000096809B9012100E0002121B14FF0FF31A1
:1008C000064A116006E004490968C968C868034A15
:1008D00041681160704700002C0000205800002083
:1008E00001460A69D1E901309860D1E901035860F5
:1008F0005068884201D18868506000200861106803
:10090000401E10601068704742684A6093688B60B0
:10091000936859609160086103685B1C03607047CD
:100920001248006818B10120114908601DE000203C
:100930000F4908600F480068B0FA80F0C0F11F014D
:1009400001EB81020C4B03EB82004268526842606B
:1009500000F108024368934202D142685268426043
:100960004268D268054B1A6000BF704760000020E3
:100970004C000020400000206800002028000020DB
:100980002DE9F04100273A480068002863D1394832
:100990000068451C374805608DB93748D0F800809D
:1009A00036480068344908603448C0F8008034484C
:1009B0000068401C32490860FFF778FF00BF3148EB
:1009C000006885423BD300BF2B480068006808B927
:1009D000012000E0002020B14FF0FF3029490860DD
:1009E0002CE025480068C068C4686668B54202D239
:1009F0002448066022E0201DFFF772FFA06A18B1AC
:100A000004F11800FFF76CFF94F82C1001208840C7
:100A10001D49096808431C490860E16A01EB81012E
:100A20001A4A02EB8100211DFFF76EFF1849E06AA8
:100A30000968C96A8842C7D30127C5E700BF1448BF
:100A40000068C06A00EB8000104951F820000128BE
:100A500000D9012704E00F480068401C0D490860D8
:100A60000D48006800B101273846BDE8F08100005C
:100A7000600000203C0000202C00002030000020FE
:100A80005000002058000020400000206800002096
:100A900028000020480000204C000020BC0A00086C
:100AA000000000206800000068080008240B00080F
:100AB00068000020C80400007808000800A24A046A
:100AC00000000000000000000102030406070809FE
:100AD00000000000010203040102030406070809E4
:100AE00002040608000000000000000000000000F2
:100AF00000000000000000000000000000000000F6
:100B000000000000000000000000000000000000E5
:100B100000000000000000000000000000000000D5
:040B200000000000D1
:04000005080000ED02
:00000001FF
